:020000040800F2
:10000000D0050020010100089702000859020008ED
:1000100095020008590100081109000800000000BD
:10002000000000000000000000000000390400088B
:100030005B0100080000000071030008FD040008D7
:100040001B0100081B0100081B0100081B01000820
:100050001B0100081B0100081B0100081B01000810
:100060001B0100081B0100081B0100081B01000800
:100070001B0100081B0100081B0100081B010008F0
:100080001B0100081B0100081B0100081B010008E0
:100090001B0100081B0100081B0100081B010008D0
:1000A0001B0100081B0100081B0100081B010008C0
:1000B0001B010008510500081B0100081B01000876
:1000C0001B0100081B0100081B0100081B010008A0
:1000D0001B0100086D0700081B0100081B01000838
:1000E0001B0100081B0100081B010008DFF80CD0F1
:1000F00000F020F800480047C9090008D00500209A
:100100000648804706480047FEE7FEE7FEE7FEE7B1
:10011000FEE7FEE7FEE7FEE7FEE7FEE70105000873
:10012000ED000008421C10F8011B0029FBD1801AC9
:1001300070470000064C074D06E0E06840F0010300
:1001400094E8070098471034AC42F6D3FFF7D2FF8B
:10015000F00A0008100B0008FEE77047F0B5CC78F5
:10016000002204F00F03E40601D58C7823430C78B9
:100170004FF00F0C14F0FF0F4FF0010E1BD005686D
:100180000E880EFA02F42640A64210D196000CFA10
:1001900006F725EA070703FA06F5CE783D43282E31
:1001A00002D0482E02D002E0446100E00461521CFB
:1001B000082AE5D305600A88FF2A1CD94468002272
:1001C00002F108060EFA06F50E882E40AE420ED158
:1001D00096000CFA06F7BC4303FA06F7CE783C43C8
:1001E000282E00D14561CE78482E00D10561521CE1
:1001F000082AE5D34460F0BDF0B5144C002801DABC
:10020000E36900E06368450D2E0185B2C0F3015734
:10021000B540C0F30342032F05D0C6020AD503261A
:100220009640B34307E023F07062636823F0706385
:10023000636002E0AB4343F0706201B12A430028DF
:1002400001DAE261F0BD6260F0BD00000000014033
:100250004161704701617047FEE7000038B5012138
:10026000102000F093F84FF40054ADF80040102037
:100270008DF803000320064D8DF8020069462846DC
:10028000FFF76CFF21462846FFF7E4FF38BD00006A
:1002900000100140FEE7704730B50F23C2780178A7
:1002A0000125F2B1144A126801F1E02102F4E06282
:1002B000C2F5E062120AC2F10404D3404278A240BF
:1002C00084781C401443220181F80024007800F057
:1002D0001F018D404009800000F1E020C0F800516E
:1002E00030BD01F01F0085404809800000F1E0208A
:1002F000C0F8805130BD00000CED00E00249084319
:1003000002490860704700000000FA050CED00E0AB
:100310002DE9F04100F044FB124C012820601ED171
:10032000C32000F023FB104DC121284600F0CEF978
:100330000E4F6E1431463846FFF78AFF40F6B8304C
:1003400000F014FBBE2000F011FBBE21284600F097
:10035000BDF931463846FFF77DFF00202060BDE83B
:10036000F081000000000020000400400010014067
:1003700070470000044A0029D16901D0014300E020
:100380008143D1617047000000100240044A0029F7
:10039000916901D0014300E0814391617047000001
:1003A0000010024030B5204A5168204B11F00C017A
:1003B00003D0042901D0082901D0036012E051685C
:1003C000536801F470114FF0020413F4803F04EB02
:1003D000914102D053689B0301D5154B00E0134BAC
:1003E0005943016051680F2303EA1111114B5C5C02
:1003F0000168E14041605468072505EA14241C5D4A
:1004000021FA04F48460546805EAD4241B5DD940C1
:10041000C1605268032303EA9232064B1B1F9A5CA9
:10042000B1FBF2F1016130BD0010024000127A0010
:1004300000093D00F0000020704700000CB50022CC
:10044000264800920192016841F4803101604FF426
:10045000A063016801F4003101910099491C0091E9
:10046000019911B900999942F3D10168890333D5F3
:10047000012101911A490A6842F010020A600A68D3
:1004800022F003020A600A6842F002020A60416830
:10049000416041684160416841F480614160416868
:1004A00021F47C114160416841F4E8114160016828
:1004B00041F08071016001688901FCD5416821F03B
:1004C00003014160416841F0020141604168C1F3AC
:1004D00081010229FAD10CBD01920CBD001002402D
:1004E000002002404FF0E0210428086903D020F0EA
:1004F00004000861704740F00400FAE7704700000C
:100500000F4810B5016841F00101016041680D4AD2
:100510001140416001680C4A11400160016821F4FA
:1005200080210160416821F4FE0141604FF41F0108
:100530008160FFF783FF05494FF00060086010BD40
:10054000001002400000FFF8FFFFF6FE08ED00E09B
:1005500010B5074C0121204600F061F8002805D0B5
:100560002046BDE81040012100F04CB810BD00004D
:100570000004004030B50D46044689B00121022038
:10058000FFF7F8FE01210920FFF700FF01211A48BB
:10059000FFF732FE2022ADF81C2018228DF81F2014
:1005A00003208DF81E0007A91448FFF7D7FDADF80A
:1005B0000440ADF800500024114DADF80640ADF8F0
:1005C00002406946284600F083F87021ADF80C100F
:1005D0000120ADF80E00ADF8144003A9284600F044
:1005E0002BF80821284600F067F80121284600F082
:1005F0000CF809B030BD000000081A00000C0140E2
:1006000000040040C943018270470029018802D0DC
:1006100041F0010101E021F0010101807047024633
:100620000020138A92890B4202EA010202D0002ABA
:1006300000D001207047000070B5028C22F010023B
:100640000284028C8388048B0D8824F4E6464FF6DE
:10065000FF7404EA052535430E8922F0200204EADE
:10066000061616434A8804EA02123243104EB0427C
:1006700002D0104EB04215D122F080064A8923F4F0
:10068000406304EA0212324322F040068A8804EAF8
:10069000021232438E8904EA86061E43CB8904EA9D
:1006A0008303334383800583C9880187028470BD37
:1006B000002C014000340140028B4FF6FF7322F4FE
:1006C000006203EA012111430183704701877047EB
:1006D00030B502881B4C1C4DA0420DD0A8420BD057
:1006E000B0F1804F08D0194B984205D0184B984272
:1006F00002D0184B984203D122F070034A881A4363
:10070000154B984206D0154B984203D022F4407303
:10071000CA881A4302808A8882850A880285A04294
:100720000AD0A84208D00E4A904205D00D4A904205
:1007300002D00D4A904201D1097A018601218182BD
:1007400030BD0000002C0140003401400004004096
:1007500000080040000C0040001000400014004061
:1007600000400140004401400048014070B5174C72
:1007700040F22551204600F039F8002812D02046DA
:1007800000F0C2F8C1B202290CD003290AD0104AE5
:100790001088030406D444044FF0000306D50A2948
:1007A00001D0138070BD40F400400DE00D2909D048
:1007B000C0F30D04074D401C80B229551080C72896
:1007C000EFD870BD40F48040108070BD003801400B
:1007D00004010020080100200029818902D041F491
:1007E000005101E021F400518181704770B501F0A2
:1007F0001F0501260024C1F3421306FA05F2012B5E
:100800000FD0022B0FD0838A4FEA112100881342A8
:1008100006FA01F600EA060001D000B101242046E4
:1008200070BD8389F0E7038AEEE710B5C1F3421388
:1008300001F01F040121A140012B07D0022B07D09A
:100840001430002A026805D00A4304E00C30F8E7AF
:100850001030F6E78A43026010BD000030B5044650
:10086000008A85B00D464CF6FF710840E9880143C7
:100870002182A0894EF6F3110840A9882A891143E4
:100880006A8902431143A181A08A4FF6FF410840C3
:10089000A9890143A1826846FFF784FD1948844273
:1008A00001D1039800E00298A189090400EBC0017E
:1008B00001EB0010296801D5490000E08900B0FB78
:1008C000F1F06422B0FBF2F109010B096FF0180599
:1008D0006B4300EB8300A3891D044FF0320306D560
:1008E00003EBC000B0FBF2F000F0070005E003EB03
:1008F0000010B0FBF2F000F00F000843208105B0BB
:1009000030BD0000003801408088C0F30800704707
:10091000FEE702E008C8121F08C1002AFAD170479A
:100920007047002001E001C1121F002AFBD170476F
:1009300010B56FF00400FFF7D5FD094809490068BC
:10094000B0FBF1F00849C0B200EB40020870C2EB06
:10095000C0104FF6FF7202EAC000488010BD0000D0
:10096000D800002000127A00000100200B494988BD
:1009700048434FF0E021486100238B61086940F053
:10098000010008610869C20701D0C003FAD50869EF
:1009900020F0010008618B61704700000001002019
:1009A00070B5084D06460024C4EB041005EB400169
:1009B000304600F037F8012803D0641C072CF3DB25
:1009C000002070BD04000020FFF79AFDFFF7B0FF84
:1009D0004FF4A060FFF792FC4FF4165000F038F887
:1009E000FFF73CFC41F61F41C720FFF7C3FDBE20C7
:1009F000FFF7BCFFBE210848FFF768FE074E084D11
:100A0000002430880004FCD50548FFF781FC3480C1
:100A10002C606C602C72F4E700040040040100209C
:100A20000801002070B50C460546FFF77BFB204609
:100A3000FFF778FB012206E0A95CA35C994201D094
:100A4000002070BD521C8242F6DB012070BD000008
:100A500070B5054686B0012144F20400FFF796FC0C
:100A60004FF40070ADF8100003248DF812401820E8
:100A70001D4E8DF8130004A93046FFF76FFB3015AB
:100A8000ADF8100004208DF8130004A93046FFF7DC
:100A900065FB25208DF814008DF815408DF8164063
:100AA00001208DF8170005A8FFF7F6FB0020ADF830
:100AB0000400ADF80600ADF80800ADF80C000C20FD
:100AC0000A4CADF80A00009569462046FFF7C6FEBD
:100AD000012240F225512046FFF7A7FE01212046C2
:100AE000FFF77AFE06B070BD0008014000380140F3
:100AF000100B000800000020080100001209000887
:100B0000180C000808010020C80400002209000891
:100B1000000000003346393638324433000000000C
:100B200000000000000000000000000000000000C5
:100B300000003532453542383344000000000000E3
:100B400000000000000000000000000000000000A5
:100B500034393545453630300000000000000000D3
:100B6000000000000000000000000000000031391B
:100B7000373543443330000000000000000000001F
:100B80000000000000000000000000003346423278
:100B90004342443300000000000000000000000059
:100BA00000000000000000000000324134453244E3
:100BB00045300000000000000000000000000000C0
:100BC0000000000000000000424644303936423048
:100BD0000000000000000000000000000000000015
:100BE000000000000000000000A24A040000000015
:100BF00000000000010203040607080902040608B9
:100C000000000000010203040102030406070809B2
:080C10000000000000000000DC
:04000005080000ED02
:00000001FF
